:020000040000FA
:100000000A128A11FC2F00308A000408840A820731
:0E0010000034533445344E3441344934003406
:100F2C0083120313081388170F30860088170D30AF
:100F3C00F000F00B9F2F8312031388170800F100A9
:100F4C008312031308177108860088130D30F00004
:100F5C00F00BAE2F831203138817080083160313AC
:100F6C00881308138316031789018316031386014C
:100F7C008312031386018817081308000A128A11BA
:100F8C00B4270A128A110A128A1196270A128A1198
:100F9C0001300A128A11D8270A128A11D42F0A1288
:100FAC008A110028F300F401ED2F740873078400F4
:100FBC000A128A1103200A128A110A128A11A52711
:100FCC000A128A110130F2007208F407ED2F74082E
:100FDC00730784000A128A1103200A128A11003A3C
:100FEC00031DF92FFA2FDB2FFB2F080083010A12A8
:040FFC008A11C42F63
:04400E00D4E0FFFFFC
:00000001FF
